:100000000C9434000C9451000C9451000C94510049
:100010000C9451000C9451000C9451000C9451001C
:100020000C9451000C9451000C9451000C9451000C
:100030000C9451000C9451000C9451000C945100FC
:100040000C9451000C9451000C9453000C945100EA
:100050000C9451000C9451000C9451000C945100DC
:100060000C9451000C94510011241FBECFEFD8E026
:10007000DEBFCDBF11E0A0E0B1E0E2E6F8E002C0F3
:1000800005900D92A033B107D9F721E0A0E3B1E0CC
:1000900001C01D92A337B207E1F70E94FD000C9446
:1000A0002F040C9400001F920F920FB60F92112490
:1000B0002F933F934F935F936F937F938F939F9370
:1000C000AF93BF93EF93FF93809130018D3110F088
:1000D000109230018091C6008D3061F08A30D9F4E1
:1000E00061E371E08FE491E00E945D0110923001C4
:1000F00010923101FF91EF91BF91AF919F918F913C
:100100007F916F915F914F913F912F910F900FBE13
:100110000F901F901895E0913001F0E0EF5CFE4FDA
:100120008083E0913001F0E0EE5CFE4F1082809120
:1001300030018F5F80933001DDCF60E171E08FE4AB
:1001400091E00E945401892B49F480910001909123
:1001500001010196909301018093000164E171E037
:100160008FE491E00E945401892B61F48091000199
:10017000909101010197181619062CF49093010132
:1001800080930001089581E090E0F8CF9091C00045
:1001900095FFFCCF8093C600082E000C990B0895A4
:1001A00078941092C50087E68093C400E0ECF0E0FC
:1001B00080818D7F808380818D7F80838081806836
:1001C000808388E98093C10086E08093C20082E04A
:1001D00091E09093700180936F0108958091C00029
:1001E000807890E008958091C60008958091C000C5
:1001F00087FFFCCF8091C600089510924F010E94A6
:10020000D000579ACFE4D1E088E1E82E81E0F82EC3
:1002100004E211E080914F01882371F0DF93CF93C6
:10022000FF92EF920E9464010E949D0010924F0184
:100230000F900F900F900F90809101018F938091FC
:1002400000018F931F930F930E9464015F9A0F9098
:100250000F900F900F9090E080E02091000130917E
:10026000010182179307ACF05F9890E080E0209145
:100270000001309101018217930764F64FEF23EDDF
:1002800030E3415020403040E1F700C000000196CB
:10029000EECF4FEF23ED30E3415020403040E1F707
:1002A00000C000000196D9CFFB01DC018D910190C7
:1002B00080190110D9F3990B0895FB01DC0101901D
:1002C0000D920020E1F70895B0E0A0E0EAE6F1E049
:1002D0000C940804AE014B5F5F4FFA01619171917C
:1002E000AF0180916F01909170010E947A01E2E06C
:1002F0000C942404ABE0B0E0E0E8F1E00C94F803E7
:100300007C013B018A01FC0117821682838181FFF7
:10031000C8C1CE0101965C01F7019381F30193FD01
:10032000859193FF81913F01882309F453C1853260
:1003300039F493FD859193FF81913F01853229F432
:10034000B70190E00E946A03E7CF912C212C312C59
:10035000FFE1F31538F08B3211F190F4803209F19E
:10036000833229F137FC3CC020ED280F2A3050F5AC
:1003700036FE20C08AE0989E200D1124922E06C0E1
:100380008D3291F0803371F7689430F8F30193FD6A
:10039000859193FF81913F018111DACF21C068944B
:1003A00031F8689432F8F2CF689433F8EFCF68945C
:1003B00034F8ECCFEAE02E9E200D1124222E689412
:1003C00035F8E4CF8E3229F436FC04C1689436F84F
:1003D000DDCF8C3619F4689437F8D8CF8836B1F26F
:1003E000982F9F7D95549330E0F08336A1F18337A9
:1003F000C1F1833509F063C02801F2E04F0E511CB2
:10040000F801C080D180692D70E036FC02C06FEF2A
:100410007FEFC6010E9454034C01689437F88201B3
:100420000AC00C5F1F4FFFE3F98388248394912C4B
:100430006501E89437F833FE2DC0522C81149104E5
:1004400071F5552009F468CFB70180E290E00E9471
:100450006A035A94F6CFF801808189830E5F1F4F9B
:10046000E4CF2801F2E04F0E511CF801C080D1808A
:10047000692D70E036FC02C06FEF7FEFC6010E946D
:100480005F034C018201D5CFB70180E290E00E946A
:100490006A032A942814190409F0B0F7CECFF601A4
:1004A00037FC859137FE81916F01B70190E00E9482
:1004B0006A0351105A94F1E08F1A9108BFCF843625
:1004C00019F0893609F077C0F80137FE6BC06081FA
:1004D0007181828193810C5F1F4FF32DFF763F2E38
:1004E00097FF09C090958095709561957F4F8F4FCC
:1004F0009F4F689437F82AE030E0A5010E949A03E4
:10050000C82ECA188C2C432C36FE0CC0E89440F838
:10051000C91440F434FE05C032FC03C0F32DFE7E46
:100520004F2E892C44FE95C0FE01EC0DF11D8081FB
:10053000803309F087C0242D297E422E842D8870B7
:10054000582E43FC95C040FE8FC09C2C821418F49A
:100550002C0C922C981844FE91C0B70180E390E0D7
:100560000E946A0342FE09C088E790E041FE02C093
:1005700088E590E0B7010E946A03C91408F48AC0B4
:10058000CA94D12C9FEFC91AD90ACA0CDB1CF601F8
:1005900082916F01B70190E00E946A03AC14BD0420
:1005A000B1F74FCF60817181072E000C880B990B3A
:1005B0000E5F1F4F92CFD32CE894D4F82AE030E09E
:1005C000853739F1232D297FD22E8F3601F148F45A
:1005D0008835A9F0F701868197812B96E2E10C948A
:1005E0001404803749F08837A9F7D4FE02C0689414
:1005F000D2F820E130E00DC06894D4F8F6CF34FE94
:1006000003C0822F8660D82E20E132E002C028E0AD
:1006100030E0F801D7FE0FC0608171818281938143
:100620000C5F1F4FA5010E949A03C82ECA183D2CCB
:10063000E89437F867CF6081718190E080E00E5FC9
:100640001F4FF0CF42FC02C0839478CF83948394F1
:1006500075CF842D867809F471CFF6CFB70180E28B
:1006600090E00E946A0383948214C0F3512C73CFEC
:10067000522C5818821408F46ECFF8CF842D867847
:1006800009F47BCF8BE241FE80E247FC8DE2B701AB
:1006900090E071CFB70180E390E00E946A039A94E2
:1006A0006CCF8FEF9FEF99CFFC01059061507040A8
:1006B0000110D8F7809590958E0F9F1F0895FC012B
:1006C0006150704001900110D8F7809590958E0F81
:1006D0009F1F08950F931F93CF93DF93182F092F18
:1006E000EB018B8181FD09C01FEF0FEF812F902F50
:1006F000DF91CF911F910F91089582FF14C02E8139
:100700003F818C819D81281739073CF4E881F9816C
:10071000CF0101969983888310838E819F810196F2
:100720009F838E83E3CFE885F985812F0995892BF7
:10073000A1F3DACFFA01AA27283051F1203181F153
:10074000E8946F936E7F6E5F7F4F8F4F9F4FAF4FD9
:10075000B1E03ED0B4E03CD0670F781F891F9A1FEC
:10076000A11D680F791F8A1F911DA11D6A0F711DA0
:10077000811D911DA11D20D009F468943F912AE0AC
:10078000269F11243019305D3193DEF6CF01089594
:10079000462F4770405D4193B3E00FD0C9F7F6CFC5
:1007A000462F4F70405D4A3318F0495D31FD40528D
:1007B000419302D0A9F7EACFB4E0A6959795879523
:1007C00077956795BA95C9F7009761057105089502
:1007D0009B01AC010A2E06945795479537952795AE
:1007E000BA95C9F7620F731F841F951FA01D089546
:1007F0002F923F924F925F926F927F928F929F9231
:10080000AF92BF92CF92DF92EF92FF920F931F931E
:10081000CF93DF93CDB7DEB7CA1BDB0B0FB6F894CF
:10082000DEBF0FBECDBF09942A88398848885F840F
:100830006E847D848C849B84AA84B984C884DF8080
:10084000EE80FD800C811B81AA81B981CE0FD11D64
:100850000FB6F894DEBF0FBECDBFED010895F8943A
:02086000FFCFC8
:1008620001000000000200000000C60000000000BD
:100872004144440044454C00434F4D4D414E443A9F
:1008820025730A00626C696E6B733A25640A000074
:00000001FF
