:100000000C9434000C9451000C9451000C94510049
:100010000C9451000C9451000C9451000C9451001C
:100020000C9451000C9451000C9451000C9451000C
:100030000C9451000C9451000C9451000C945100FC
:100040000C9451000C9451000C9451000C945100EC
:100050000C9451000C9451000C9451000C945100DC
:100060000C9451000C94510011241FBECFEFD8E026
:10007000DEBFCDBF11E0A0E0B1E0E8E8F1E002C0F2
:1000800005900D92A431B107D9F721E0A4E1B1E0C8
:1000900001C01D92AA31B207E1F70E947B000C94C7
:1000A000C2000C9400009091C00095FFFCCF80939B
:1000B000C600082E000C990B08951092C50087E623
:1000C0008093C400E0ECF0E080818D7F808386E047
:1000D0008093C20088E18093C10080E091E090931A
:1000E00017018093160108958091C00087FFFCCF0F
:1000F0008091C60008950E945D00579A5F9A2FEF85
:1001000083ED90E3215080409040E1F700C0000073
:100110005F982FEF83ED90E3215080409040E1F70E
:1001200000C000008EE091E00E949700E7CF0F939F
:100130001F93CF93DF93E0911601F0911701238174
:10014000EC0110E000E021FD08C00FEF1FEF14C02C
:100150000995892B11F00FEF1FEF8991609116011E
:1001600070911701DB011896ED91FC918111F0CF90
:100170008AE00995892B49F7C801DF91CF911F913A
:080180000F910895F894FFCFE0
:100188000000000200000000530000000000486565
:040198006C6C6F001C
:00000001FF
